{
  "_format": "hh-sol-artifact-1",
  "contractName": "Musician",
  "sourceName": "contracts/Musician.sol",
  "abi": [
    {
      "inputs": [],
      "stateMutability": "nonpayable",
      "type": "constructor"
    },
    {
      "inputs": [
        {
          "internalType": "address",
          "name": "sender",
          "type": "address"
        },
        {
          "internalType": "uint256",
          "name": "tokenId",
          "type": "uint256"
        },
        {
          "internalType": "address",
          "name": "owner",
          "type": "address"
        }
      ],
      "name": "ERC721IncorrectOwner",
      "type": "error"
    },
    {
      "inputs": [
        {
          "internalType": "address",
          "name": "operator",
          "type": "address"
        },
        {
          "internalType": "uint256",
          "name": "tokenId",
          "type": "uint256"
        }
      ],
      "name": "ERC721InsufficientApproval",
      "type": "error"
    },
    {
      "inputs": [
        {
          "internalType": "address",
          "name": "approver",
          "type": "address"
        }
      ],
      "name": "ERC721InvalidApprover",
      "type": "error"
    },
    {
      "inputs": [
        {
          "internalType": "address",
          "name": "operator",
          "type": "address"
        }
      ],
      "name": "ERC721InvalidOperator",
      "type": "error"
    },
    {
      "inputs": [
        {
          "internalType": "address",
          "name": "owner",
          "type": "address"
        }
      ],
      "name": "ERC721InvalidOwner",
      "type": "error"
    },
    {
      "inputs": [
        {
          "internalType": "address",
          "name": "receiver",
          "type": "address"
        }
      ],
      "name": "ERC721InvalidReceiver",
      "type": "error"
    },
    {
      "inputs": [
        {
          "internalType": "address",
          "name": "sender",
          "type": "address"
        }
      ],
      "name": "ERC721InvalidSender",
      "type": "error"
    },
    {
      "inputs": [
        {
          "internalType": "uint256",
          "name": "tokenId",
          "type": "uint256"
        }
      ],
      "name": "ERC721NonexistentToken",
      "type": "error"
    },
    {
      "inputs": [
        {
          "internalType": "address",
          "name": "owner",
          "type": "address"
        }
      ],
      "name": "OwnableInvalidOwner",
      "type": "error"
    },
    {
      "inputs": [
        {
          "internalType": "address",
          "name": "account",
          "type": "address"
        }
      ],
      "name": "OwnableUnauthorizedAccount",
      "type": "error"
    },
    {
      "anonymous": false,
      "inputs": [
        {
          "indexed": true,
          "internalType": "address",
          "name": "owner",
          "type": "address"
        },
        {
          "indexed": true,
          "internalType": "address",
          "name": "approved",
          "type": "address"
        },
        {
          "indexed": true,
          "internalType": "uint256",
          "name": "tokenId",
          "type": "uint256"
        }
      ],
      "name": "Approval",
      "type": "event"
    },
    {
      "anonymous": false,
      "inputs": [
        {
          "indexed": true,
          "internalType": "address",
          "name": "owner",
          "type": "address"
        },
        {
          "indexed": true,
          "internalType": "address",
          "name": "operator",
          "type": "address"
        },
        {
          "indexed": false,
          "internalType": "bool",
          "name": "approved",
          "type": "bool"
        }
      ],
      "name": "ApprovalForAll",
      "type": "event"
    },
    {
      "anonymous": false,
      "inputs": [
        {
          "indexed": false,
          "internalType": "uint256",
          "name": "_fromTokenId",
          "type": "uint256"
        },
        {
          "indexed": false,
          "internalType": "uint256",
          "name": "_toTokenId",
          "type": "uint256"
        }
      ],
      "name": "BatchMetadataUpdate",
      "type": "event"
    },
    {
      "anonymous": false,
      "inputs": [
        {
          "indexed": false,
          "internalType": "uint256",
          "name": "_tokenId",
          "type": "uint256"
        }
      ],
      "name": "MetadataUpdate",
      "type": "event"
    },
    {
      "anonymous": false,
      "inputs": [
        {
          "indexed": true,
          "internalType": "address",
          "name": "musician",
          "type": "address"
        },
        {
          "indexed": false,
          "internalType": "uint256",
          "name": "tokenId",
          "type": "uint256"
        },
        {
          "indexed": false,
          "internalType": "string",
          "name": "tokenURI",
          "type": "string"
        }
      ],
      "name": "MusicianMinted",
      "type": "event"
    },
    {
      "anonymous": false,
      "inputs": [
        {
          "indexed": true,
          "internalType": "address",
          "name": "previousOwner",
          "type": "address"
        },
        {
          "indexed": true,
          "internalType": "address",
          "name": "newOwner",
          "type": "address"
        }
      ],
      "name": "OwnershipTransferred",
      "type": "event"
    },
    {
      "anonymous": false,
      "inputs": [
        {
          "indexed": true,
          "internalType": "address",
          "name": "from",
          "type": "address"
        },
        {
          "indexed": true,
          "internalType": "address",
          "name": "to",
          "type": "address"
        },
        {
          "indexed": true,
          "internalType": "uint256",
          "name": "tokenId",
          "type": "uint256"
        }
      ],
      "name": "Transfer",
      "type": "event"
    },
    {
      "inputs": [],
      "name": "MINT_FEE",
      "outputs": [
        {
          "internalType": "uint256",
          "name": "",
          "type": "uint256"
        }
      ],
      "stateMutability": "view",
      "type": "function"
    },
    {
      "inputs": [
        {
          "internalType": "address",
          "name": "to",
          "type": "address"
        },
        {
          "internalType": "uint256",
          "name": "tokenId",
          "type": "uint256"
        }
      ],
      "name": "approve",
      "outputs": [],
      "stateMutability": "nonpayable",
      "type": "function"
    },
    {
      "inputs": [
        {
          "internalType": "address",
          "name": "owner",
          "type": "address"
        }
      ],
      "name": "balanceOf",
      "outputs": [
        {
          "internalType": "uint256",
          "name": "",
          "type": "uint256"
        }
      ],
      "stateMutability": "view",
      "type": "function"
    },
    {
      "inputs": [
        {
          "internalType": "uint256",
          "name": "tokenId",
          "type": "uint256"
        }
      ],
      "name": "getApproved",
      "outputs": [
        {
          "internalType": "address",
          "name": "",
          "type": "address"
        }
      ],
      "stateMutability": "view",
      "type": "function"
    },
    {
      "inputs": [],
      "name": "getLastMintedTokenId",
      "outputs": [
        {
          "internalType": "uint256",
          "name": "",
          "type": "uint256"
        }
      ],
      "stateMutability": "view",
      "type": "function"
    },
    {
      "inputs": [
        {
          "internalType": "address",
          "name": "",
          "type": "address"
        }
      ],
      "name": "hasMinted",
      "outputs": [
        {
          "internalType": "bool",
          "name": "",
          "type": "bool"
        }
      ],
      "stateMutability": "view",
      "type": "function"
    },
    {
      "inputs": [
        {
          "internalType": "address",
          "name": "user",
          "type": "address"
        }
      ],
      "name": "hasMusicianNFT",
      "outputs": [
        {
          "internalType": "bool",
          "name": "",
          "type": "bool"
        }
      ],
      "stateMutability": "view",
      "type": "function"
    },
    {
      "inputs": [
        {
          "internalType": "address",
          "name": "owner",
          "type": "address"
        },
        {
          "internalType": "address",
          "name": "operator",
          "type": "address"
        }
      ],
      "name": "isApprovedForAll",
      "outputs": [
        {
          "internalType": "bool",
          "name": "",
          "type": "bool"
        }
      ],
      "stateMutability": "view",
      "type": "function"
    },
    {
      "inputs": [
        {
          "internalType": "string",
          "name": "tokenURI",
          "type": "string"
        }
      ],
      "name": "mint",
      "outputs": [],
      "stateMutability": "payable",
      "type": "function"
    },
    {
      "inputs": [],
      "name": "name",
      "outputs": [
        {
          "internalType": "string",
          "name": "",
          "type": "string"
        }
      ],
      "stateMutability": "view",
      "type": "function"
    },
    {
      "inputs": [],
      "name": "owner",
      "outputs": [
        {
          "internalType": "address",
          "name": "",
          "type": "address"
        }
      ],
      "stateMutability": "view",
      "type": "function"
    },
    {
      "inputs": [
        {
          "internalType": "uint256",
          "name": "tokenId",
          "type": "uint256"
        }
      ],
      "name": "ownerOf",
      "outputs": [
        {
          "internalType": "address",
          "name": "",
          "type": "address"
        }
      ],
      "stateMutability": "view",
      "type": "function"
    },
    {
      "inputs": [],
      "name": "renounceOwnership",
      "outputs": [],
      "stateMutability": "nonpayable",
      "type": "function"
    },
    {
      "inputs": [
        {
          "internalType": "address",
          "name": "from",
          "type": "address"
        },
        {
          "internalType": "address",
          "name": "to",
          "type": "address"
        },
        {
          "internalType": "uint256",
          "name": "tokenId",
          "type": "uint256"
        }
      ],
      "name": "safeTransferFrom",
      "outputs": [],
      "stateMutability": "nonpayable",
      "type": "function"
    },
    {
      "inputs": [
        {
          "internalType": "address",
          "name": "from",
          "type": "address"
        },
        {
          "internalType": "address",
          "name": "to",
          "type": "address"
        },
        {
          "internalType": "uint256",
          "name": "tokenId",
          "type": "uint256"
        },
        {
          "internalType": "bytes",
          "name": "data",
          "type": "bytes"
        }
      ],
      "name": "safeTransferFrom",
      "outputs": [],
      "stateMutability": "nonpayable",
      "type": "function"
    },
    {
      "inputs": [
        {
          "internalType": "address",
          "name": "operator",
          "type": "address"
        },
        {
          "internalType": "bool",
          "name": "approved",
          "type": "bool"
        }
      ],
      "name": "setApprovalForAll",
      "outputs": [],
      "stateMutability": "nonpayable",
      "type": "function"
    },
    {
      "inputs": [
        {
          "internalType": "bytes4",
          "name": "interfaceId",
          "type": "bytes4"
        }
      ],
      "name": "supportsInterface",
      "outputs": [
        {
          "internalType": "bool",
          "name": "",
          "type": "bool"
        }
      ],
      "stateMutability": "view",
      "type": "function"
    },
    {
      "inputs": [],
      "name": "symbol",
      "outputs": [
        {
          "internalType": "string",
          "name": "",
          "type": "string"
        }
      ],
      "stateMutability": "view",
      "type": "function"
    },
    {
      "inputs": [
        {
          "internalType": "uint256",
          "name": "tokenId",
          "type": "uint256"
        }
      ],
      "name": "tokenURI",
      "outputs": [
        {
          "internalType": "string",
          "name": "",
          "type": "string"
        }
      ],
      "stateMutability": "view",
      "type": "function"
    },
    {
      "inputs": [
        {
          "internalType": "address",
          "name": "from",
          "type": "address"
        },
        {
          "internalType": "address",
          "name": "to",
          "type": "address"
        },
        {
          "internalType": "uint256",
          "name": "tokenId",
          "type": "uint256"
        }
      ],
      "name": "transferFrom",
      "outputs": [],
      "stateMutability": "nonpayable",
      "type": "function"
    },
    {
      "inputs": [
        {
          "internalType": "address",
          "name": "newOwner",
          "type": "address"
        }
      ],
      "name": "transferOwnership",
      "outputs": [],
      "stateMutability": "nonpayable",
      "type": "function"
    },
    {
      "inputs": [],
      "name": "withdraw",
      "outputs": [],
      "stateMutability": "nonpayable",
      "type": "function"
    }
  ],
  "bytecode": "0x608060405260016008553480156200001657600080fd5b50336040518060400160405280600881526020017f4d7573696369616e0000000000000000000000000000000000000000000000008152506040518060400160405280600381526020017f4d53430000000000000000000000000000000000000000000000000000000000815250816000908162000095919062000477565b508060019081620000a7919062000477565b505050600073ffffffffffffffffffffffffffffffffffffffff168173ffffffffffffffffffffffffffffffffffffffff16036200011f5760006040517f1e4fbdf7000000000000000000000000000000000000000000000000000000008152600401620001169190620005a3565b60405180910390fd5b62000130816200013760201b60201c565b50620005c0565b6000600760009054906101000a900473ffffffffffffffffffffffffffffffffffffffff16905081600760006101000a81548173ffffffffffffffffffffffffffffffffffffffff021916908373ffffffffffffffffffffffffffffffffffffffff1602179055508173ffffffffffffffffffffffffffffffffffffffff168173ffffffffffffffffffffffffffffffffffffffff167f8be0079c531659141344cd1fd0a4f28419497f9722a3daafe3b4186f6b6457e060405160405180910390a35050565b600081519050919050565b7f4e487b7100000000000000000000000000000000000000000000000000000000600052604160045260246000fd5b7f4e487b7100000000000000000000000000000000000000000000000000000000600052602260045260246000fd5b600060028204905060018216806200027f57607f821691505b60208210810362000295576200029462000237565b5b50919050565b60008190508160005260206000209050919050565b60006020601f8301049050919050565b600082821b905092915050565b600060088302620002ff7fffffffffffffffffffffffffffffffffffffffffffffffffffffffffffffffff82620002c0565b6200030b8683620002c0565b95508019841693508086168417925050509392505050565b6000819050919050565b6000819050919050565b600062000358620003526200034c8462000323565b6200032d565b62000323565b9050919050565b6000819050919050565b620003748362000337565b6200038c62000383826200035f565b848454620002cd565b825550505050565b600090565b620003a362000394565b620003b081848462000369565b505050565b5b81811015620003d857620003cc60008262000399565b600181019050620003b6565b5050565b601f8211156200042757620003f1816200029b565b620003fc84620002b0565b810160208510156200040c578190505b620004246200041b85620002b0565b830182620003b5565b50505b505050565b600082821c905092915050565b60006200044c600019846008026200042c565b1980831691505092915050565b600062000467838362000439565b9150826002028217905092915050565b6200048282620001fd565b67ffffffffffffffff8111156200049e576200049d62000208565b5b620004aa825462000266565b620004b7828285620003dc565b600060209050601f831160018114620004ef5760008415620004da578287015190505b620004e6858262000459565b86555062000556565b601f198416620004ff866200029b565b60005b82811015620005295784890151825560018201915060208501945060208101905062000502565b8683101562000549578489015162000545601f89168262000439565b8355505b6001600288020188555050505b505050505050565b600073ffffffffffffffffffffffffffffffffffffffff82169050919050565b60006200058b826200055e565b9050919050565b6200059d816200057e565b82525050565b6000602082019050620005ba600083018462000592565b92915050565b612e3b80620005d06000396000f3fe6080604052600436106101355760003560e01c8063715018a6116100ab578063b88d4fde1161006f578063b88d4fde14610426578063c87b56dd1461044f578063d7bf81a31461048c578063d85d3d27146104b7578063e985e9c5146104d3578063f2fde38b1461051057610135565b8063715018a6146103655780637974e46a1461037c5780638da5cb5b146103a757806395d89b41146103d2578063a22cb465146103fd57610135565b806323b872dd116100fd57806323b872dd1461024557806338e21cce1461026e5780633ccfd60b146102ab57806342842e0e146102c25780636352211e146102eb57806370a082311461032857610135565b806301ffc9a71461013a5780630693a6ce1461017757806306fdde03146101b4578063081812fc146101df578063095ea7b31461021c575b600080fd5b34801561014657600080fd5b50610161600480360381019061015c9190612046565b610539565b60405161016e919061208e565b60405180910390f35b34801561018357600080fd5b5061019e60048036038101906101999190612107565b61059a565b6040516101ab919061208e565b60405180910390f35b3480156101c057600080fd5b506101c96105f0565b6040516101d691906121c4565b60405180910390f35b3480156101eb57600080fd5b506102066004803603810190610201919061221c565b610682565b6040516102139190612258565b60405180910390f35b34801561022857600080fd5b50610243600480360381019061023e9190612273565b61069e565b005b34801561025157600080fd5b5061026c600480360381019061026791906122b3565b6106b4565b005b34801561027a57600080fd5b5061029560048036038101906102909190612107565b6107b6565b6040516102a2919061208e565b60405180910390f35b3480156102b757600080fd5b506102c06107d6565b005b3480156102ce57600080fd5b506102e960048036038101906102e491906122b3565b610877565b005b3480156102f757600080fd5b50610312600480360381019061030d919061221c565b610897565b60405161031f9190612258565b60405180910390f35b34801561033457600080fd5b5061034f600480360381019061034a9190612107565b6108a9565b60405161035c9190612315565b60405180910390f35b34801561037157600080fd5b5061037a610963565b005b34801561038857600080fd5b50610391610977565b60405161039e9190612315565b60405180910390f35b3480156103b357600080fd5b506103bc61098d565b6040516103c99190612258565b60405180910390f35b3480156103de57600080fd5b506103e76109b7565b6040516103f491906121c4565b60405180910390f35b34801561040957600080fd5b50610424600480360381019061041f919061235c565b610a49565b005b34801561043257600080fd5b5061044d600480360381019061044891906124d1565b610a5f565b005b34801561045b57600080fd5b506104766004803603810190610471919061221c565b610a84565b60405161048391906121c4565b60405180910390f35b34801561049857600080fd5b506104a1610b97565b6040516104ae9190612315565b60405180910390f35b6104d160048036038101906104cc91906125f5565b610ba2565b005b3480156104df57600080fd5b506104fa60048036038101906104f5919061263e565b610dbd565b604051610507919061208e565b60405180910390f35b34801561051c57600080fd5b5061053760048036038101906105329190612107565b610e51565b005b6000634906490660e01b7bffffffffffffffffffffffffffffffffffffffffffffffffffffffff1916827bffffffffffffffffffffffffffffffffffffffffffffffffffffffff19161480610593575061059282610ed7565b5b9050919050565b6000600960008373ffffffffffffffffffffffffffffffffffffffff1673ffffffffffffffffffffffffffffffffffffffff16815260200190815260200160002060009054906101000a900460ff169050919050565b6060600080546105ff906126ad565b80601f016020809104026020016040519081016040528092919081815260200182805461062b906126ad565b80156106785780601f1061064d57610100808354040283529160200191610678565b820191906000526020600020905b81548152906001019060200180831161065b57829003601f168201915b5050505050905090565b600061068d82610fb9565b5061069782611041565b9050919050565b6106b082826106ab61107e565b611086565b5050565b600073ffffffffffffffffffffffffffffffffffffffff168273ffffffffffffffffffffffffffffffffffffffff16036107265760006040517f64a0ae9200000000000000000000000000000000000000000000000000000000815260040161071d9190612258565b60405180910390fd5b600061073a838361073561107e565b611098565b90508373ffffffffffffffffffffffffffffffffffffffff168173ffffffffffffffffffffffffffffffffffffffff16146107b0578382826040517f64283d7b0000000000000000000000000000000000000000000000000000000081526004016107a7939291906126de565b60405180910390fd5b50505050565b60096020528060005260406000206000915054906101000a900460ff1681565b6107de61112a565b600047905060008111610826576040517f08c379a000000000000000000000000000000000000000000000000000000000815260040161081d90612761565b60405180910390fd5b61082e61098d565b73ffffffffffffffffffffffffffffffffffffffff166108fc829081150290604051600060405180830381858888f19350505050158015610873573d6000803e3d6000fd5b5050565b61089283838360405180602001604052806000815250610a5f565b505050565b60006108a282610fb9565b9050919050565b60008073ffffffffffffffffffffffffffffffffffffffff168273ffffffffffffffffffffffffffffffffffffffff160361091c5760006040517f89c62b640000000000000000000000000000000000000000000000000000000081526004016109139190612258565b60405180910390fd5b600360008373ffffffffffffffffffffffffffffffffffffffff1673ffffffffffffffffffffffffffffffffffffffff168152602001908152602001600020549050919050565b61096b61112a565b61097560006111b1565b565b6000600160085461098891906127b0565b905090565b6000600760009054906101000a900473ffffffffffffffffffffffffffffffffffffffff16905090565b6060600180546109c6906126ad565b80601f01602080910402602001604051908101604052809291908181526020018280546109f2906126ad565b8015610a3f5780601f10610a1457610100808354040283529160200191610a3f565b820191906000526020600020905b815481529060010190602001808311610a2257829003601f168201915b5050505050905090565b610a5b610a5461107e565b8383611277565b5050565b610a6a8484846106b4565b610a7e610a7561107e565b858585856113e6565b50505050565b6060610a8f82610fb9565b506000600660008481526020019081526020016000208054610ab0906126ad565b80601f0160208091040260200160405190810160405280929190818152602001828054610adc906126ad565b8015610b295780601f10610afe57610100808354040283529160200191610b29565b820191906000526020600020905b815481529060010190602001808311610b0c57829003601f168201915b505050505090506000610b3a611597565b90506000815103610b4f578192505050610b92565b600082511115610b84578082604051602001610b6c929190612820565b60405160208183030381529060405292505050610b92565b610b8d846115ae565b925050505b919050565b662386f26fc1000081565b600960003373ffffffffffffffffffffffffffffffffffffffff1673ffffffffffffffffffffffffffffffffffffffff16815260200190815260200160002060009054906101000a900460ff1615610c2f576040517f08c379a0000000000000000000000000000000000000000000000000000000008152600401610c26906128b6565b60405180910390fd5b662386f26fc10000341015610c79576040517f08c379a0000000000000000000000000000000000000000000000000000000008152600401610c7090612948565b60405180910390fd5b600060086000815480929190610c8e90612968565b919050559050610c9e3382611617565b610ca88183611635565b6001600960003373ffffffffffffffffffffffffffffffffffffffff1673ffffffffffffffffffffffffffffffffffffffff16815260200190815260200160002060006101000a81548160ff0219169083151502179055503373ffffffffffffffffffffffffffffffffffffffff167fd7309e9adf736ce3a79966f61fa9efb6302c6abeb3100557f02fdc5055dfd8228284604051610d489291906129b0565b60405180910390a2662386f26fc10000341115610db9573373ffffffffffffffffffffffffffffffffffffffff166108fc662386f26fc1000034610d8c91906127b0565b9081150290604051600060405180830381858888f19350505050158015610db7573d6000803e3d6000fd5b505b5050565b6000600560008473ffffffffffffffffffffffffffffffffffffffff1673ffffffffffffffffffffffffffffffffffffffff16815260200190815260200160002060008373ffffffffffffffffffffffffffffffffffffffff1673ffffffffffffffffffffffffffffffffffffffff16815260200190815260200160002060009054906101000a900460ff16905092915050565b610e5961112a565b600073ffffffffffffffffffffffffffffffffffffffff168173ffffffffffffffffffffffffffffffffffffffff1603610ecb5760006040517f1e4fbdf7000000000000000000000000000000000000000000000000000000008152600401610ec29190612258565b60405180910390fd5b610ed4816111b1565b50565b60007f80ac58cd000000000000000000000000000000000000000000000000000000007bffffffffffffffffffffffffffffffffffffffffffffffffffffffff1916827bffffffffffffffffffffffffffffffffffffffffffffffffffffffff19161480610fa257507f5b5e139f000000000000000000000000000000000000000000000000000000007bffffffffffffffffffffffffffffffffffffffffffffffffffffffff1916827bffffffffffffffffffffffffffffffffffffffffffffffffffffffff1916145b80610fb25750610fb182611691565b5b9050919050565b600080610fc5836116fb565b9050600073ffffffffffffffffffffffffffffffffffffffff168173ffffffffffffffffffffffffffffffffffffffff160361103857826040517f7e27328900000000000000000000000000000000000000000000000000000000815260040161102f9190612315565b60405180910390fd5b80915050919050565b60006004600083815260200190815260200160002060009054906101000a900473ffffffffffffffffffffffffffffffffffffffff169050919050565b600033905090565b6110938383836001611738565b505050565b6000806110a4846116fb565b9050600073ffffffffffffffffffffffffffffffffffffffff168173ffffffffffffffffffffffffffffffffffffffff1614611115576040517f08c379a000000000000000000000000000000000000000000000000000000000815260040161110c90612a2c565b60405180910390fd5b6111208585856118fd565b9150509392505050565b61113261107e565b73ffffffffffffffffffffffffffffffffffffffff1661115061098d565b73ffffffffffffffffffffffffffffffffffffffff16146111af5761117361107e565b6040517f118cdaa70000000000000000000000000000000000000000000000000000000081526004016111a69190612258565b60405180910390fd5b565b6000600760009054906101000a900473ffffffffffffffffffffffffffffffffffffffff16905081600760006101000a81548173ffffffffffffffffffffffffffffffffffffffff021916908373ffffffffffffffffffffffffffffffffffffffff1602179055508173ffffffffffffffffffffffffffffffffffffffff168173ffffffffffffffffffffffffffffffffffffffff167f8be0079c531659141344cd1fd0a4f28419497f9722a3daafe3b4186f6b6457e060405160405180910390a35050565b600073ffffffffffffffffffffffffffffffffffffffff168273ffffffffffffffffffffffffffffffffffffffff16036112e857816040517f5b08ba180000000000000000000000000000000000000000000000000000000081526004016112df9190612258565b60405180910390fd5b80600560008573ffffffffffffffffffffffffffffffffffffffff1673ffffffffffffffffffffffffffffffffffffffff16815260200190815260200160002060008473ffffffffffffffffffffffffffffffffffffffff1673ffffffffffffffffffffffffffffffffffffffff16815260200190815260200160002060006101000a81548160ff0219169083151502179055508173ffffffffffffffffffffffffffffffffffffffff168373ffffffffffffffffffffffffffffffffffffffff167f17307eab39ab6107e8899845ad3d59bd9653f200f220920489ca2b5937696c31836040516113d9919061208e565b60405180910390a3505050565b60008373ffffffffffffffffffffffffffffffffffffffff163b1115611590578273ffffffffffffffffffffffffffffffffffffffff1663150b7a02868685856040518563ffffffff1660e01b81526004016114459493929190612aa1565b6020604051808303816000875af192505050801561148157506040513d601f19601f8201168201806040525081019061147e9190612b02565b60015b611505573d80600081146114b1576040519150601f19603f3d011682016040523d82523d6000602084013e6114b6565b606091505b5060008151036114fd57836040517f64a0ae920000000000000000000000000000000000000000000000000000000081526004016114f49190612258565b60405180910390fd5b805181602001fd5b63150b7a0260e01b7bffffffffffffffffffffffffffffffffffffffffffffffffffffffff1916817bffffffffffffffffffffffffffffffffffffffffffffffffffffffff19161461158e57836040517f64a0ae920000000000000000000000000000000000000000000000000000000081526004016115859190612258565b60405180910390fd5b505b5050505050565b606060405180602001604052806000815250905090565b60606115b982610fb9565b5060006115c4611597565b905060008151116115e4576040518060200160405280600081525061160f565b806115ee84611b17565b6040516020016115ff929190612820565b6040516020818303038152906040525b915050919050565b611631828260405180602001604052806000815250611be5565b5050565b806006600084815260200190815260200160002090816116559190612cdb565b507ff8e1a15aba9398e019f0b49df1a4fde98ee17ae345cb5f6b5e2c27f5033e8ce7826040516116859190612315565b60405180910390a15050565b60007f01ffc9a7000000000000000000000000000000000000000000000000000000007bffffffffffffffffffffffffffffffffffffffffffffffffffffffff1916827bffffffffffffffffffffffffffffffffffffffffffffffffffffffff1916149050919050565b60006002600083815260200190815260200160002060009054906101000a900473ffffffffffffffffffffffffffffffffffffffff169050919050565b80806117715750600073ffffffffffffffffffffffffffffffffffffffff168273ffffffffffffffffffffffffffffffffffffffff1614155b156118a557600061178184610fb9565b9050600073ffffffffffffffffffffffffffffffffffffffff168373ffffffffffffffffffffffffffffffffffffffff16141580156117ec57508273ffffffffffffffffffffffffffffffffffffffff168173ffffffffffffffffffffffffffffffffffffffff1614155b80156117ff57506117fd8184610dbd565b155b1561184157826040517fa9fbf51f0000000000000000000000000000000000000000000000000000000081526004016118389190612258565b60405180910390fd5b81156118a357838573ffffffffffffffffffffffffffffffffffffffff168273ffffffffffffffffffffffffffffffffffffffff167f8c5be1e5ebec7d5bd14f71427d1e84f3dd0314c0f7b2291e5b200ac8c7c3b92560405160405180910390a45b505b836004600085815260200190815260200160002060006101000a81548173ffffffffffffffffffffffffffffffffffffffff021916908373ffffffffffffffffffffffffffffffffffffffff16021790555050505050565b600080611909846116fb565b9050600073ffffffffffffffffffffffffffffffffffffffff168373ffffffffffffffffffffffffffffffffffffffff161461194b5761194a818486611c09565b5b600073ffffffffffffffffffffffffffffffffffffffff168173ffffffffffffffffffffffffffffffffffffffff16146119dc5761198d600085600080611738565b6001600360008373ffffffffffffffffffffffffffffffffffffffff1673ffffffffffffffffffffffffffffffffffffffff168152602001908152602001600020600082825403925050819055505b600073ffffffffffffffffffffffffffffffffffffffff168573ffffffffffffffffffffffffffffffffffffffff1614611a5f576001600360008773ffffffffffffffffffffffffffffffffffffffff1673ffffffffffffffffffffffffffffffffffffffff168152602001908152602001600020600082825401925050819055505b846002600086815260200190815260200160002060006101000a81548173ffffffffffffffffffffffffffffffffffffffff021916908373ffffffffffffffffffffffffffffffffffffffff160217905550838573ffffffffffffffffffffffffffffffffffffffff168273ffffffffffffffffffffffffffffffffffffffff167fddf252ad1be2c89b69c2b068fc378daa952ba7f163c4a11628f55a4df523b3ef60405160405180910390a4809150509392505050565b606060006001611b2684611ccd565b01905060008167ffffffffffffffff811115611b4557611b446123a6565b5b6040519080825280601f01601f191660200182016040528015611b775781602001600182028036833780820191505090505b509050600082602001820190505b600115611bda578080600190039150507f3031323334353637383961626364656600000000000000000000000000000000600a86061a8153600a8581611bce57611bcd612dad565b5b04945060008503611b85575b819350505050919050565b611bef8383611e20565b611c04611bfa61107e565b60008585856113e6565b505050565b611c14838383611f19565b611cc857600073ffffffffffffffffffffffffffffffffffffffff168373ffffffffffffffffffffffffffffffffffffffff1603611c8957806040517f7e273289000000000000000000000000000000000000000000000000000000008152600401611c809190612315565b60405180910390fd5b81816040517f177e802f000000000000000000000000000000000000000000000000000000008152600401611cbf929190612ddc565b60405180910390fd5b505050565b600080600090507a184f03e93ff9f4daa797ed6e38ed64bf6a1f0100000000000000008310611d2b577a184f03e93ff9f4daa797ed6e38ed64bf6a1f0100000000000000008381611d2157611d20612dad565b5b0492506040810190505b6d04ee2d6d415b85acef81000000008310611d68576d04ee2d6d415b85acef81000000008381611d5e57611d5d612dad565b5b0492506020810190505b662386f26fc100008310611d9757662386f26fc100008381611d8d57611d8c612dad565b5b0492506010810190505b6305f5e1008310611dc0576305f5e1008381611db657611db5612dad565b5b0492506008810190505b6127108310611de5576127108381611ddb57611dda612dad565b5b0492506004810190505b60648310611e085760648381611dfe57611dfd612dad565b5b0492506002810190505b600a8310611e17576001810190505b80915050919050565b600073ffffffffffffffffffffffffffffffffffffffff168273ffffffffffffffffffffffffffffffffffffffff1603611e925760006040517f64a0ae92000000000000000000000000000000000000000000000000000000008152600401611e899190612258565b60405180910390fd5b6000611ea083836000611098565b9050600073ffffffffffffffffffffffffffffffffffffffff168173ffffffffffffffffffffffffffffffffffffffff1614611f145760006040517f73c6ac6e000000000000000000000000000000000000000000000000000000008152600401611f0b9190612258565b60405180910390fd5b505050565b60008073ffffffffffffffffffffffffffffffffffffffff168373ffffffffffffffffffffffffffffffffffffffff1614158015611fd157508273ffffffffffffffffffffffffffffffffffffffff168473ffffffffffffffffffffffffffffffffffffffff161480611f925750611f918484610dbd565b5b80611fd057508273ffffffffffffffffffffffffffffffffffffffff16611fb883611041565b73ffffffffffffffffffffffffffffffffffffffff16145b5b90509392505050565b6000604051905090565b600080fd5b600080fd5b60007fffffffff0000000000000000000000000000000000000000000000000000000082169050919050565b61202381611fee565b811461202e57600080fd5b50565b6000813590506120408161201a565b92915050565b60006020828403121561205c5761205b611fe4565b5b600061206a84828501612031565b91505092915050565b60008115159050919050565b61208881612073565b82525050565b60006020820190506120a3600083018461207f565b92915050565b600073ffffffffffffffffffffffffffffffffffffffff82169050919050565b60006120d4826120a9565b9050919050565b6120e4816120c9565b81146120ef57600080fd5b50565b600081359050612101816120db565b92915050565b60006020828403121561211d5761211c611fe4565b5b600061212b848285016120f2565b91505092915050565b600081519050919050565b600082825260208201905092915050565b60005b8381101561216e578082015181840152602081019050612153565b60008484015250505050565b6000601f19601f8301169050919050565b600061219682612134565b6121a0818561213f565b93506121b0818560208601612150565b6121b98161217a565b840191505092915050565b600060208201905081810360008301526121de818461218b565b905092915050565b6000819050919050565b6121f9816121e6565b811461220457600080fd5b50565b600081359050612216816121f0565b92915050565b60006020828403121561223257612231611fe4565b5b600061224084828501612207565b91505092915050565b612252816120c9565b82525050565b600060208201905061226d6000830184612249565b92915050565b6000806040838503121561228a57612289611fe4565b5b6000612298858286016120f2565b92505060206122a985828601612207565b9150509250929050565b6000806000606084860312156122cc576122cb611fe4565b5b60006122da868287016120f2565b93505060206122eb868287016120f2565b92505060406122fc86828701612207565b9150509250925092565b61230f816121e6565b82525050565b600060208201905061232a6000830184612306565b92915050565b61233981612073565b811461234457600080fd5b50565b60008135905061235681612330565b92915050565b6000806040838503121561237357612372611fe4565b5b6000612381858286016120f2565b925050602061239285828601612347565b9150509250929050565b600080fd5b600080fd5b7f4e487b7100000000000000000000000000000000000000000000000000000000600052604160045260246000fd5b6123de8261217a565b810181811067ffffffffffffffff821117156123fd576123fc6123a6565b5b80604052505050565b6000612410611fda565b905061241c82826123d5565b919050565b600067ffffffffffffffff82111561243c5761243b6123a6565b5b6124458261217a565b9050602081019050919050565b82818337600083830152505050565b600061247461246f84612421565b612406565b9050828152602081018484840111156124905761248f6123a1565b5b61249b848285612452565b509392505050565b600082601f8301126124b8576124b761239c565b5b81356124c8848260208601612461565b91505092915050565b600080600080608085870312156124eb576124ea611fe4565b5b60006124f9878288016120f2565b945050602061250a878288016120f2565b935050604061251b87828801612207565b925050606085013567ffffffffffffffff81111561253c5761253b611fe9565b5b612548878288016124a3565b91505092959194509250565b600067ffffffffffffffff82111561256f5761256e6123a6565b5b6125788261217a565b9050602081019050919050565b600061259861259384612554565b612406565b9050828152602081018484840111156125b4576125b36123a1565b5b6125bf848285612452565b509392505050565b600082601f8301126125dc576125db61239c565b5b81356125ec848260208601612585565b91505092915050565b60006020828403121561260b5761260a611fe4565b5b600082013567ffffffffffffffff81111561262957612628611fe9565b5b612635848285016125c7565b91505092915050565b6000806040838503121561265557612654611fe4565b5b6000612663858286016120f2565b9250506020612674858286016120f2565b9150509250929050565b7f4e487b7100000000000000000000000000000000000000000000000000000000600052602260045260246000fd5b600060028204905060018216806126c557607f821691505b6020821081036126d8576126d761267e565b5b50919050565b60006060820190506126f36000830186612249565b6127006020830185612306565b61270d6040830184612249565b949350505050565b7f4d7573696369616e3a204e6f2066756e647320746f2077697468647261770000600082015250565b600061274b601e8361213f565b915061275682612715565b602082019050919050565b6000602082019050818103600083015261277a8161273e565b9050919050565b7f4e487b7100000000000000000000000000000000000000000000000000000000600052601160045260246000fd5b60006127bb826121e6565b91506127c6836121e6565b92508282039050818111156127de576127dd612781565b5b92915050565b600081905092915050565b60006127fa82612134565b61280481856127e4565b9350612814818560208601612150565b80840191505092915050565b600061282c82856127ef565b915061283882846127ef565b91508190509392505050565b7f4d7573696369616e3a204164647265737320616c72656164792068617320616e60008201527f204e465400000000000000000000000000000000000000000000000000000000602082015250565b60006128a060248361213f565b91506128ab82612844565b604082019050919050565b600060208201905081810360008301526128cf81612893565b9050919050565b7f4d7573696369616e3a20496e73756666696369656e74206d696e74696e67206660008201527f6565000000000000000000000000000000000000000000000000000000000000602082015250565b600061293260228361213f565b915061293d826128d6565b604082019050919050565b6000602082019050818103600083015261296181612925565b9050919050565b6000612973826121e6565b91507fffffffffffffffffffffffffffffffffffffffffffffffffffffffffffffffff82036129a5576129a4612781565b5b600182019050919050565b60006040820190506129c56000830185612306565b81810360208301526129d7818461218b565b90509392505050565b7f4d7573696369616e3a20546f6b656e20697320736f756c626f756e6400000000600082015250565b6000612a16601c8361213f565b9150612a21826129e0565b602082019050919050565b60006020820190508181036000830152612a4581612a09565b9050919050565b600081519050919050565b600082825260208201905092915050565b6000612a7382612a4c565b612a7d8185612a57565b9350612a8d818560208601612150565b612a968161217a565b840191505092915050565b6000608082019050612ab66000830187612249565b612ac36020830186612249565b612ad06040830185612306565b8181036060830152612ae28184612a68565b905095945050505050565b600081519050612afc8161201a565b92915050565b600060208284031215612b1857612b17611fe4565b5b6000612b2684828501612aed565b91505092915050565b60008190508160005260206000209050919050565b60006020601f8301049050919050565b600082821b905092915050565b600060088302612b917fffffffffffffffffffffffffffffffffffffffffffffffffffffffffffffffff82612b54565b612b9b8683612b54565b95508019841693508086168417925050509392505050565b6000819050919050565b6000612bd8612bd3612bce846121e6565b612bb3565b6121e6565b9050919050565b6000819050919050565b612bf283612bbd565b612c06612bfe82612bdf565b848454612b61565b825550505050565b600090565b612c1b612c0e565b612c26818484612be9565b505050565b5b81811015612c4a57612c3f600082612c13565b600181019050612c2c565b5050565b601f821115612c8f57612c6081612b2f565b612c6984612b44565b81016020851015612c78578190505b612c8c612c8485612b44565b830182612c2b565b50505b505050565b600082821c905092915050565b6000612cb260001984600802612c94565b1980831691505092915050565b6000612ccb8383612ca1565b9150826002028217905092915050565b612ce482612134565b67ffffffffffffffff811115612cfd57612cfc6123a6565b5b612d0782546126ad565b612d12828285612c4e565b600060209050601f831160018114612d455760008415612d33578287015190505b612d3d8582612cbf565b865550612da5565b601f198416612d5386612b2f565b60005b82811015612d7b57848901518255600182019150602085019450602081019050612d56565b86831015612d985784890151612d94601f891682612ca1565b8355505b6001600288020188555050505b505050505050565b7f4e487b7100000000000000000000000000000000000000000000000000000000600052601260045260246000fd5b6000604082019050612df16000830185612249565b612dfe6020830184612306565b939250505056fea26469706673582212206f50e6e32b39289769b24c8af85ad72cd5615a96dff85c2ae7f11ae71d86db1f64736f6c63430008140033",
  "linkReferences": {},
  "deployedLinkReferences": {}
}