{
  "_format": "hh-sol-artifact-1",
  "contractName": "Album",
  "sourceName": "contracts/Album.sol",
  "abi": [
    {
      "inputs": [
        {
          "internalType": "address",
          "name": "_musicianNFT",
          "type": "address"
        }
      ],
      "stateMutability": "nonpayable",
      "type": "constructor"
    },
    {
      "inputs": [
        {
          "internalType": "address",
          "name": "sender",
          "type": "address"
        },
        {
          "internalType": "uint256",
          "name": "tokenId",
          "type": "uint256"
        },
        {
          "internalType": "address",
          "name": "owner",
          "type": "address"
        }
      ],
      "name": "ERC721IncorrectOwner",
      "type": "error"
    },
    {
      "inputs": [
        {
          "internalType": "address",
          "name": "operator",
          "type": "address"
        },
        {
          "internalType": "uint256",
          "name": "tokenId",
          "type": "uint256"
        }
      ],
      "name": "ERC721InsufficientApproval",
      "type": "error"
    },
    {
      "inputs": [
        {
          "internalType": "address",
          "name": "approver",
          "type": "address"
        }
      ],
      "name": "ERC721InvalidApprover",
      "type": "error"
    },
    {
      "inputs": [
        {
          "internalType": "address",
          "name": "operator",
          "type": "address"
        }
      ],
      "name": "ERC721InvalidOperator",
      "type": "error"
    },
    {
      "inputs": [
        {
          "internalType": "address",
          "name": "owner",
          "type": "address"
        }
      ],
      "name": "ERC721InvalidOwner",
      "type": "error"
    },
    {
      "inputs": [
        {
          "internalType": "address",
          "name": "receiver",
          "type": "address"
        }
      ],
      "name": "ERC721InvalidReceiver",
      "type": "error"
    },
    {
      "inputs": [
        {
          "internalType": "address",
          "name": "sender",
          "type": "address"
        }
      ],
      "name": "ERC721InvalidSender",
      "type": "error"
    },
    {
      "inputs": [
        {
          "internalType": "uint256",
          "name": "tokenId",
          "type": "uint256"
        }
      ],
      "name": "ERC721NonexistentToken",
      "type": "error"
    },
    {
      "inputs": [
        {
          "internalType": "address",
          "name": "owner",
          "type": "address"
        }
      ],
      "name": "OwnableInvalidOwner",
      "type": "error"
    },
    {
      "inputs": [
        {
          "internalType": "address",
          "name": "account",
          "type": "address"
        }
      ],
      "name": "OwnableUnauthorizedAccount",
      "type": "error"
    },
    {
      "anonymous": false,
      "inputs": [
        {
          "indexed": true,
          "internalType": "address",
          "name": "listener",
          "type": "address"
        },
        {
          "indexed": false,
          "internalType": "uint256",
          "name": "tokenId",
          "type": "uint256"
        },
        {
          "indexed": false,
          "internalType": "string",
          "name": "albumName",
          "type": "string"
        }
      ],
      "name": "AlbumMinted",
      "type": "event"
    },
    {
      "anonymous": false,
      "inputs": [
        {
          "indexed": true,
          "internalType": "address",
          "name": "musician",
          "type": "address"
        },
        {
          "indexed": false,
          "internalType": "uint256",
          "name": "tokenId",
          "type": "uint256"
        },
        {
          "indexed": false,
          "internalType": "string",
          "name": "albumName",
          "type": "string"
        },
        {
          "indexed": false,
          "internalType": "string",
          "name": "albumURI",
          "type": "string"
        }
      ],
      "name": "AlbumPublished",
      "type": "event"
    },
    {
      "anonymous": false,
      "inputs": [
        {
          "indexed": true,
          "internalType": "address",
          "name": "owner",
          "type": "address"
        },
        {
          "indexed": true,
          "internalType": "address",
          "name": "approved",
          "type": "address"
        },
        {
          "indexed": true,
          "internalType": "uint256",
          "name": "tokenId",
          "type": "uint256"
        }
      ],
      "name": "Approval",
      "type": "event"
    },
    {
      "anonymous": false,
      "inputs": [
        {
          "indexed": true,
          "internalType": "address",
          "name": "owner",
          "type": "address"
        },
        {
          "indexed": true,
          "internalType": "address",
          "name": "operator",
          "type": "address"
        },
        {
          "indexed": false,
          "internalType": "bool",
          "name": "approved",
          "type": "bool"
        }
      ],
      "name": "ApprovalForAll",
      "type": "event"
    },
    {
      "anonymous": false,
      "inputs": [
        {
          "indexed": false,
          "internalType": "uint256",
          "name": "_fromTokenId",
          "type": "uint256"
        },
        {
          "indexed": false,
          "internalType": "uint256",
          "name": "_toTokenId",
          "type": "uint256"
        }
      ],
      "name": "BatchMetadataUpdate",
      "type": "event"
    },
    {
      "anonymous": false,
      "inputs": [
        {
          "indexed": false,
          "internalType": "uint256",
          "name": "_tokenId",
          "type": "uint256"
        }
      ],
      "name": "MetadataUpdate",
      "type": "event"
    },
    {
      "anonymous": false,
      "inputs": [
        {
          "indexed": true,
          "internalType": "address",
          "name": "previousOwner",
          "type": "address"
        },
        {
          "indexed": true,
          "internalType": "address",
          "name": "newOwner",
          "type": "address"
        }
      ],
      "name": "OwnershipTransferred",
      "type": "event"
    },
    {
      "anonymous": false,
      "inputs": [
        {
          "indexed": true,
          "internalType": "address",
          "name": "from",
          "type": "address"
        },
        {
          "indexed": true,
          "internalType": "address",
          "name": "to",
          "type": "address"
        },
        {
          "indexed": true,
          "internalType": "uint256",
          "name": "tokenId",
          "type": "uint256"
        }
      ],
      "name": "Transfer",
      "type": "event"
    },
    {
      "inputs": [],
      "name": "MINT_FEE",
      "outputs": [
        {
          "internalType": "uint256",
          "name": "",
          "type": "uint256"
        }
      ],
      "stateMutability": "view",
      "type": "function"
    },
    {
      "inputs": [
        {
          "internalType": "uint256",
          "name": "",
          "type": "uint256"
        }
      ],
      "name": "albumCreator",
      "outputs": [
        {
          "internalType": "address",
          "name": "",
          "type": "address"
        }
      ],
      "stateMutability": "view",
      "type": "function"
    },
    {
      "inputs": [
        {
          "internalType": "uint256",
          "name": "",
          "type": "uint256"
        }
      ],
      "name": "albumNames",
      "outputs": [
        {
          "internalType": "string",
          "name": "",
          "type": "string"
        }
      ],
      "stateMutability": "view",
      "type": "function"
    },
    {
      "inputs": [
        {
          "internalType": "uint256",
          "name": "",
          "type": "uint256"
        },
        {
          "internalType": "uint256",
          "name": "",
          "type": "uint256"
        }
      ],
      "name": "albumSongs",
      "outputs": [
        {
          "internalType": "uint256",
          "name": "songId",
          "type": "uint256"
        },
        {
          "internalType": "string",
          "name": "songTitle",
          "type": "string"
        }
      ],
      "stateMutability": "view",
      "type": "function"
    },
    {
      "inputs": [
        {
          "internalType": "address",
          "name": "to",
          "type": "address"
        },
        {
          "internalType": "uint256",
          "name": "tokenId",
          "type": "uint256"
        }
      ],
      "name": "approve",
      "outputs": [],
      "stateMutability": "nonpayable",
      "type": "function"
    },
    {
      "inputs": [
        {
          "internalType": "address",
          "name": "owner",
          "type": "address"
        }
      ],
      "name": "balanceOf",
      "outputs": [
        {
          "internalType": "uint256",
          "name": "",
          "type": "uint256"
        }
      ],
      "stateMutability": "view",
      "type": "function"
    },
    {
      "inputs": [
        {
          "internalType": "uint256",
          "name": "tokenId",
          "type": "uint256"
        }
      ],
      "name": "getAlbumName",
      "outputs": [
        {
          "internalType": "string",
          "name": "",
          "type": "string"
        }
      ],
      "stateMutability": "view",
      "type": "function"
    },
    {
      "inputs": [
        {
          "internalType": "uint256",
          "name": "tokenId",
          "type": "uint256"
        }
      ],
      "name": "getAlbumSongs",
      "outputs": [
        {
          "components": [
            {
              "internalType": "uint256",
              "name": "songId",
              "type": "uint256"
            },
            {
              "internalType": "string",
              "name": "songTitle",
              "type": "string"
            }
          ],
          "internalType": "struct Album.Song[]",
          "name": "",
          "type": "tuple[]"
        }
      ],
      "stateMutability": "view",
      "type": "function"
    },
    {
      "inputs": [
        {
          "internalType": "uint256",
          "name": "tokenId",
          "type": "uint256"
        }
      ],
      "name": "getApproved",
      "outputs": [
        {
          "internalType": "address",
          "name": "",
          "type": "address"
        }
      ],
      "stateMutability": "view",
      "type": "function"
    },
    {
      "inputs": [],
      "name": "getTotalMintedTokens",
      "outputs": [
        {
          "internalType": "uint256",
          "name": "",
          "type": "uint256"
        }
      ],
      "stateMutability": "view",
      "type": "function"
    },
    {
      "inputs": [
        {
          "internalType": "address",
          "name": "",
          "type": "address"
        },
        {
          "internalType": "uint256",
          "name": "",
          "type": "uint256"
        }
      ],
      "name": "hasMintedAlbum",
      "outputs": [
        {
          "internalType": "bool",
          "name": "",
          "type": "bool"
        }
      ],
      "stateMutability": "view",
      "type": "function"
    },
    {
      "inputs": [
        {
          "internalType": "address",
          "name": "owner",
          "type": "address"
        },
        {
          "internalType": "address",
          "name": "operator",
          "type": "address"
        }
      ],
      "name": "isApprovedForAll",
      "outputs": [
        {
          "internalType": "bool",
          "name": "",
          "type": "bool"
        }
      ],
      "stateMutability": "view",
      "type": "function"
    },
    {
      "inputs": [
        {
          "internalType": "uint256",
          "name": "",
          "type": "uint256"
        }
      ],
      "name": "isPublished",
      "outputs": [
        {
          "internalType": "bool",
          "name": "",
          "type": "bool"
        }
      ],
      "stateMutability": "view",
      "type": "function"
    },
    {
      "inputs": [
        {
          "internalType": "uint256",
          "name": "tokenId",
          "type": "uint256"
        }
      ],
      "name": "mintAlbum",
      "outputs": [],
      "stateMutability": "payable",
      "type": "function"
    },
    {
      "inputs": [
        {
          "internalType": "address",
          "name": "",
          "type": "address"
        },
        {
          "internalType": "bytes32",
          "name": "",
          "type": "bytes32"
        }
      ],
      "name": "musicianAlbumNames",
      "outputs": [
        {
          "internalType": "bool",
          "name": "",
          "type": "bool"
        }
      ],
      "stateMutability": "view",
      "type": "function"
    },
    {
      "inputs": [],
      "name": "musicianNFT",
      "outputs": [
        {
          "internalType": "contract IMusicianNFT",
          "name": "",
          "type": "address"
        }
      ],
      "stateMutability": "view",
      "type": "function"
    },
    {
      "inputs": [],
      "name": "name",
      "outputs": [
        {
          "internalType": "string",
          "name": "",
          "type": "string"
        }
      ],
      "stateMutability": "view",
      "type": "function"
    },
    {
      "inputs": [],
      "name": "owner",
      "outputs": [
        {
          "internalType": "address",
          "name": "",
          "type": "address"
        }
      ],
      "stateMutability": "view",
      "type": "function"
    },
    {
      "inputs": [
        {
          "internalType": "uint256",
          "name": "tokenId",
          "type": "uint256"
        }
      ],
      "name": "ownerOf",
      "outputs": [
        {
          "internalType": "address",
          "name": "",
          "type": "address"
        }
      ],
      "stateMutability": "view",
      "type": "function"
    },
    {
      "inputs": [
        {
          "internalType": "string",
          "name": "albumName",
          "type": "string"
        },
        {
          "internalType": "string",
          "name": "albumURI",
          "type": "string"
        },
        {
          "internalType": "uint256[]",
          "name": "songIds",
          "type": "uint256[]"
        },
        {
          "internalType": "string[]",
          "name": "songTitles",
          "type": "string[]"
        }
      ],
      "name": "publishAlbum",
      "outputs": [],
      "stateMutability": "payable",
      "type": "function"
    },
    {
      "inputs": [],
      "name": "renounceOwnership",
      "outputs": [],
      "stateMutability": "nonpayable",
      "type": "function"
    },
    {
      "inputs": [
        {
          "internalType": "address",
          "name": "from",
          "type": "address"
        },
        {
          "internalType": "address",
          "name": "to",
          "type": "address"
        },
        {
          "internalType": "uint256",
          "name": "tokenId",
          "type": "uint256"
        }
      ],
      "name": "safeTransferFrom",
      "outputs": [],
      "stateMutability": "nonpayable",
      "type": "function"
    },
    {
      "inputs": [
        {
          "internalType": "address",
          "name": "from",
          "type": "address"
        },
        {
          "internalType": "address",
          "name": "to",
          "type": "address"
        },
        {
          "internalType": "uint256",
          "name": "tokenId",
          "type": "uint256"
        },
        {
          "internalType": "bytes",
          "name": "data",
          "type": "bytes"
        }
      ],
      "name": "safeTransferFrom",
      "outputs": [],
      "stateMutability": "nonpayable",
      "type": "function"
    },
    {
      "inputs": [
        {
          "internalType": "address",
          "name": "operator",
          "type": "address"
        },
        {
          "internalType": "bool",
          "name": "approved",
          "type": "bool"
        }
      ],
      "name": "setApprovalForAll",
      "outputs": [],
      "stateMutability": "nonpayable",
      "type": "function"
    },
    {
      "inputs": [
        {
          "internalType": "bytes4",
          "name": "interfaceId",
          "type": "bytes4"
        }
      ],
      "name": "supportsInterface",
      "outputs": [
        {
          "internalType": "bool",
          "name": "",
          "type": "bool"
        }
      ],
      "stateMutability": "view",
      "type": "function"
    },
    {
      "inputs": [],
      "name": "symbol",
      "outputs": [
        {
          "internalType": "string",
          "name": "",
          "type": "string"
        }
      ],
      "stateMutability": "view",
      "type": "function"
    },
    {
      "inputs": [
        {
          "internalType": "uint256",
          "name": "tokenId",
          "type": "uint256"
        }
      ],
      "name": "tokenURI",
      "outputs": [
        {
          "internalType": "string",
          "name": "",
          "type": "string"
        }
      ],
      "stateMutability": "view",
      "type": "function"
    },
    {
      "inputs": [
        {
          "internalType": "address",
          "name": "from",
          "type": "address"
        },
        {
          "internalType": "address",
          "name": "to",
          "type": "address"
        },
        {
          "internalType": "uint256",
          "name": "tokenId",
          "type": "uint256"
        }
      ],
      "name": "transferFrom",
      "outputs": [],
      "stateMutability": "nonpayable",
      "type": "function"
    },
    {
      "inputs": [
        {
          "internalType": "address",
          "name": "newOwner",
          "type": "address"
        }
      ],
      "name": "transferOwnership",
      "outputs": [],
      "stateMutability": "nonpayable",
      "type": "function"
    },
    {
      "inputs": [],
      "name": "withdraw",
      "outputs": [],
      "stateMutability": "nonpayable",
      "type": "function"
    }
  ],
  "bytecode": "0x608060405260016008553480156200001657600080fd5b5060405162004d0038038062004d0083398181016040528101906200003c9190620002ce565b336040518060400160405280600581526020017f416c62756d0000000000000000000000000000000000000000000000000000008152506040518060400160405280600381526020017f414c4200000000000000000000000000000000000000000000000000000000008152508160009081620000ba91906200057a565b508060019081620000cc91906200057a565b505050600073ffffffffffffffffffffffffffffffffffffffff168173ffffffffffffffffffffffffffffffffffffffff1603620001445760006040517f1e4fbdf70000000000000000000000000000000000000000000000000000000081526004016200013b919062000672565b60405180910390fd5b62000155816200019e60201b60201c565b5080600f60006101000a81548173ffffffffffffffffffffffffffffffffffffffff021916908373ffffffffffffffffffffffffffffffffffffffff160217905550506200068f565b6000600760009054906101000a900473ffffffffffffffffffffffffffffffffffffffff16905081600760006101000a81548173ffffffffffffffffffffffffffffffffffffffff021916908373ffffffffffffffffffffffffffffffffffffffff1602179055508173ffffffffffffffffffffffffffffffffffffffff168173ffffffffffffffffffffffffffffffffffffffff167f8be0079c531659141344cd1fd0a4f28419497f9722a3daafe3b4186f6b6457e060405160405180910390a35050565b600080fd5b600073ffffffffffffffffffffffffffffffffffffffff82169050919050565b6000620002968262000269565b9050919050565b620002a88162000289565b8114620002b457600080fd5b50565b600081519050620002c8816200029d565b92915050565b600060208284031215620002e757620002e662000264565b5b6000620002f784828501620002b7565b91505092915050565b600081519050919050565b7f4e487b7100000000000000000000000000000000000000000000000000000000600052604160045260246000fd5b7f4e487b7100000000000000000000000000000000000000000000000000000000600052602260045260246000fd5b600060028204905060018216806200038257607f821691505b6020821081036200039857620003976200033a565b5b50919050565b60008190508160005260206000209050919050565b60006020601f8301049050919050565b600082821b905092915050565b600060088302620004027fffffffffffffffffffffffffffffffffffffffffffffffffffffffffffffffff82620003c3565b6200040e8683620003c3565b95508019841693508086168417925050509392505050565b6000819050919050565b6000819050919050565b60006200045b620004556200044f8462000426565b62000430565b62000426565b9050919050565b6000819050919050565b62000477836200043a565b6200048f620004868262000462565b848454620003d0565b825550505050565b600090565b620004a662000497565b620004b38184846200046c565b505050565b5b81811015620004db57620004cf6000826200049c565b600181019050620004b9565b5050565b601f8211156200052a57620004f4816200039e565b620004ff84620003b3565b810160208510156200050f578190505b620005276200051e85620003b3565b830182620004b8565b50505b505050565b600082821c905092915050565b60006200054f600019846008026200052f565b1980831691505092915050565b60006200056a83836200053c565b9150826002028217905092915050565b620005858262000300565b67ffffffffffffffff811115620005a157620005a06200030b565b5b620005ad825462000369565b620005ba828285620004df565b600060209050601f831160018114620005f25760008415620005dd578287015190505b620005e985826200055c565b86555062000659565b601f19841662000602866200039e565b60005b828110156200062c5784890151825560018201915060208501945060208101905062000605565b868310156200064c578489015162000648601f8916826200053c565b8355505b6001600288020188555050505b505050505050565b6200066c8162000289565b82525050565b600060208201905062000689600083018462000661565b92915050565b614661806200069f6000396000f3fe6080604052600436106101cd5760003560e01c8063928ec99f116100f7578063d7bf81a311610095578063ed52ad6411610064578063ed52ad64146106da578063eed8e52114610717578063f2fde38b14610733578063f67a769c1461075c576101cd565b8063d7bf81a3146105f8578063df153dfb14610623578063e90c794e14610660578063e985e9c51461069d576101cd565b8063a3543dfe116100d1578063a3543dfe14610529578063b29d631214610567578063b88d4fde14610592578063c87b56dd146105bb576101cd565b8063928ec99f1461049857806395d89b41146104d5578063a22cb46514610500576101cd565b806342842e0e1161016f578063715018a61161013e578063715018a6146103dc5780637b156fb5146103f35780637e21fea8146104305780638da5cb5b1461046d576101cd565b806342842e0e1461031d5780636352211e1461034657806366791b491461038357806370a082311461039f576101cd565b8063095ea7b3116101ab578063095ea7b3146102775780631a6b3b40146102a057806323b872dd146102dd5780633ccfd60b14610306576101cd565b806301ffc9a7146101d257806306fdde031461020f578063081812fc1461023a575b600080fd5b3480156101de57600080fd5b506101f960048036038101906101f49190612da1565b610787565b6040516102069190612de9565b60405180910390f35b34801561021b57600080fd5b506102246107e8565b6040516102319190612e94565b60405180910390f35b34801561024657600080fd5b50610261600480360381019061025c9190612eec565b61087a565b60405161026e9190612f5a565b60405180910390f35b34801561028357600080fd5b5061029e60048036038101906102999190612fa1565b610896565b005b3480156102ac57600080fd5b506102c760048036038101906102c29190612fa1565b6108ac565b6040516102d49190612de9565b60405180910390f35b3480156102e957600080fd5b5061030460048036038101906102ff9190612fe1565b6108db565b005b34801561031257600080fd5b5061031b6109dd565b005b34801561032957600080fd5b50610344600480360381019061033f9190612fe1565b610ae4565b005b34801561035257600080fd5b5061036d60048036038101906103689190612eec565b610b04565b60405161037a9190612f5a565b60405180910390f35b61039d60048036038101906103989190613312565b610b16565b005b3480156103ab57600080fd5b506103c660048036038101906103c191906133e9565b61100c565b6040516103d39190613425565b60405180910390f35b3480156103e857600080fd5b506103f16110c6565b005b3480156103ff57600080fd5b5061041a60048036038101906104159190612eec565b6110da565b6040516104279190612de9565b60405180910390f35b34801561043c57600080fd5b5061045760048036038101906104529190612eec565b6110fa565b6040516104649190613598565b60405180910390f35b34801561047957600080fd5b5061048261127f565b60405161048f9190612f5a565b60405180910390f35b3480156104a457600080fd5b506104bf60048036038101906104ba9190612eec565b6112a9565b6040516104cc9190612e94565b60405180910390f35b3480156104e157600080fd5b506104ea611349565b6040516104f79190612e94565b60405180910390f35b34801561050c57600080fd5b50610527600480360381019061052291906135e6565b6113db565b005b34801561053557600080fd5b50610550600480360381019061054b9190613626565b6113f1565b60405161055e929190613666565b60405180910390f35b34801561057357600080fd5b5061057c6114ba565b60405161058991906136f5565b60405180910390f35b34801561059e57600080fd5b506105b960048036038101906105b491906137b1565b6114e0565b005b3480156105c757600080fd5b506105e260048036038101906105dd9190612eec565b611505565b6040516105ef9190612e94565b60405180910390f35b34801561060457600080fd5b5061060d611618565b60405161061a9190613425565b60405180910390f35b34801561062f57600080fd5b5061064a60048036038101906106459190612eec565b611623565b6040516106579190612f5a565b60405180910390f35b34801561066c57600080fd5b5061068760048036038101906106829190612eec565b611656565b6040516106949190612e94565b60405180910390f35b3480156106a957600080fd5b506106c460048036038101906106bf9190613834565b611772565b6040516106d19190612de9565b60405180910390f35b3480156106e657600080fd5b5061070160048036038101906106fc91906138aa565b611806565b60405161070e9190612de9565b60405180910390f35b610731600480360381019061072c9190612eec565b611835565b005b34801561073f57600080fd5b5061075a600480360381019061075591906133e9565b611b96565b005b34801561076857600080fd5b50610771611c1c565b60405161077e9190613425565b60405180910390f35b6000634906490660e01b7bffffffffffffffffffffffffffffffffffffffffffffffffffffffff1916827bffffffffffffffffffffffffffffffffffffffffffffffffffffffff191614806107e157506107e082611c32565b5b9050919050565b6060600080546107f790613919565b80601f016020809104026020016040519081016040528092919081815260200182805461082390613919565b80156108705780601f1061084557610100808354040283529160200191610870565b820191906000526020600020905b81548152906001019060200180831161085357829003601f168201915b5050505050905090565b600061088582611d14565b5061088f82611d9c565b9050919050565b6108a882826108a3611dd9565b611de1565b5050565b600e6020528160005260406000206020528060005260406000206000915091509054906101000a900460ff1681565b600073ffffffffffffffffffffffffffffffffffffffff168273ffffffffffffffffffffffffffffffffffffffff160361094d5760006040517f64a0ae920000000000000000000000000000000000000000000000000000000081526004016109449190612f5a565b60405180910390fd5b6000610961838361095c611dd9565b611df3565b90508373ffffffffffffffffffffffffffffffffffffffff168173ffffffffffffffffffffffffffffffffffffffff16146109d7578382826040517f64283d7b0000000000000000000000000000000000000000000000000000000081526004016109ce9392919061394a565b60405180910390fd5b50505050565b6109e5611e85565b600047905060008111610a2d576040517f08c379a0000000000000000000000000000000000000000000000000000000008152600401610a24906139cd565b60405180910390fd5b6000610a3761127f565b73ffffffffffffffffffffffffffffffffffffffff1682604051610a5a90613a1e565b60006040518083038185875af1925050503d8060008114610a97576040519150601f19603f3d011682016040523d82523d6000602084013e610a9c565b606091505b5050905080610ae0576040517f08c379a0000000000000000000000000000000000000000000000000000000008152600401610ad790613a7f565b60405180910390fd5b5050565b610aff838383604051806020016040528060008152506114e0565b505050565b6000610b0f82611d14565b9050919050565b6000600f60009054906101000a900473ffffffffffffffffffffffffffffffffffffffff1673ffffffffffffffffffffffffffffffffffffffff166370a08231336040518263ffffffff1660e01b8152600401610b739190612f5a565b602060405180830381865afa158015610b90573d6000803e3d6000fd5b505050506040513d601f19601f82011682018060405250810190610bb49190613ab4565b11610bf4576040517f08c379a0000000000000000000000000000000000000000000000000000000008152600401610beb90613b2d565b60405180910390fd5b662386f26fc10000341015610c3e576040517f08c379a0000000000000000000000000000000000000000000000000000000008152600401610c3590613b99565b60405180910390fd5b8051825114610c82576040517f08c379a0000000000000000000000000000000000000000000000000000000008152600401610c7990613c2b565b60405180910390fd5b600084604051602001610c959190613c87565b604051602081830303815290604052805190602001209050600a60003373ffffffffffffffffffffffffffffffffffffffff1673ffffffffffffffffffffffffffffffffffffffff168152602001908152602001600020600082815260200190815260200160002060009054906101000a900460ff1615610d4b576040517f08c379a0000000000000000000000000000000000000000000000000000000008152600401610d4290613cea565b60405180910390fd5b600060086000815480929190610d6090613d39565b919050559050610d703382611f0c565b610d7a8186611f2a565b60005b8451811015610e4057600960008381526020019081526020016000206040518060400160405280878481518110610db757610db6613d81565b5b60200260200101518152602001868481518110610dd757610dd6613d81565b5b60200260200101518152509080600181540180825580915050600190039060005260206000209060020201600090919091909150600082015181600001556020820151816001019081610e2a9190613f52565b5050508080610e3890613d39565b915050610d7d565b506001600a60003373ffffffffffffffffffffffffffffffffffffffff1673ffffffffffffffffffffffffffffffffffffffff168152602001908152602001600020600084815260200190815260200160002060006101000a81548160ff02191690831515021790555033600b600083815260200190815260200160002060006101000a81548173ffffffffffffffffffffffffffffffffffffffff021916908373ffffffffffffffffffffffffffffffffffffffff1602179055506001600c600083815260200190815260200160002060006101000a81548160ff02191690831515021790555085600d60008381526020019081526020016000209081610f489190613f52565b503373ffffffffffffffffffffffffffffffffffffffff167f067c9496027b1b03e7cd7cbac7c8b522c27d35f6c0d78333d9fc2d0a17380393828888604051610f9393929190614024565b60405180910390a2662386f26fc10000341115611004573373ffffffffffffffffffffffffffffffffffffffff166108fc662386f26fc1000034610fd79190614069565b9081150290604051600060405180830381858888f19350505050158015611002573d6000803e3d6000fd5b505b505050505050565b60008073ffffffffffffffffffffffffffffffffffffffff168273ffffffffffffffffffffffffffffffffffffffff160361107f5760006040517f89c62b640000000000000000000000000000000000000000000000000000000081526004016110769190612f5a565b60405180910390fd5b600360008373ffffffffffffffffffffffffffffffffffffffff1673ffffffffffffffffffffffffffffffffffffffff168152602001908152602001600020549050919050565b6110ce611e85565b6110d86000611f86565b565b600c6020528060005260406000206000915054906101000a900460ff1681565b6060600073ffffffffffffffffffffffffffffffffffffffff1661111d8361204c565b73ffffffffffffffffffffffffffffffffffffffff1603611173576040517f08c379a000000000000000000000000000000000000000000000000000000000815260040161116a906140e9565b60405180910390fd5b60096000838152602001908152602001600020805480602002602001604051908101604052809291908181526020016000905b828210156112745783829060005260206000209060020201604051806040016040529081600082015481526020016001820180546111e390613919565b80601f016020809104026020016040519081016040528092919081815260200182805461120f90613919565b801561125c5780601f106112315761010080835404028352916020019161125c565b820191906000526020600020905b81548152906001019060200180831161123f57829003601f168201915b505050505081525050815260200190600101906111a6565b505050509050919050565b6000600760009054906101000a900473ffffffffffffffffffffffffffffffffffffffff16905090565b600d60205280600052604060002060009150905080546112c890613919565b80601f01602080910402602001604051908101604052809291908181526020018280546112f490613919565b80156113415780601f1061131657610100808354040283529160200191611341565b820191906000526020600020905b81548152906001019060200180831161132457829003601f168201915b505050505081565b60606001805461135890613919565b80601f016020809104026020016040519081016040528092919081815260200182805461138490613919565b80156113d15780601f106113a6576101008083540402835291602001916113d1565b820191906000526020600020905b8154815290600101906020018083116113b457829003601f168201915b5050505050905090565b6113ed6113e6611dd9565b8383612089565b5050565b6009602052816000526040600020818154811061140d57600080fd5b90600052602060002090600202016000915091505080600001549080600101805461143790613919565b80601f016020809104026020016040519081016040528092919081815260200182805461146390613919565b80156114b05780601f10611485576101008083540402835291602001916114b0565b820191906000526020600020905b81548152906001019060200180831161149357829003601f168201915b5050505050905082565b600f60009054906101000a900473ffffffffffffffffffffffffffffffffffffffff1681565b6114eb8484846108db565b6114ff6114f6611dd9565b858585856121f8565b50505050565b606061151082611d14565b50600060066000848152602001908152602001600020805461153190613919565b80601f016020809104026020016040519081016040528092919081815260200182805461155d90613919565b80156115aa5780601f1061157f576101008083540402835291602001916115aa565b820191906000526020600020905b81548152906001019060200180831161158d57829003601f168201915b5050505050905060006115bb6123a9565b905060008151036115d0578192505050611613565b6000825111156116055780826040516020016115ed929190614109565b60405160208183030381529060405292505050611613565b61160e846123c0565b925050505b919050565b662386f26fc1000081565b600b6020528060005260406000206000915054906101000a900473ffffffffffffffffffffffffffffffffffffffff1681565b6060600073ffffffffffffffffffffffffffffffffffffffff166116798361204c565b73ffffffffffffffffffffffffffffffffffffffff16036116cf576040517f08c379a00000000000000000000000000000000000000000000000000000000081526004016116c6906140e9565b60405180910390fd5b600d600083815260200190815260200160002080546116ed90613919565b80601f016020809104026020016040519081016040528092919081815260200182805461171990613919565b80156117665780601f1061173b57610100808354040283529160200191611766565b820191906000526020600020905b81548152906001019060200180831161174957829003601f168201915b50505050509050919050565b6000600560008473ffffffffffffffffffffffffffffffffffffffff1673ffffffffffffffffffffffffffffffffffffffff16815260200190815260200160002060008373ffffffffffffffffffffffffffffffffffffffff1673ffffffffffffffffffffffffffffffffffffffff16815260200190815260200160002060009054906101000a900460ff16905092915050565b600a6020528160005260406000206020528060005260406000206000915091509054906101000a900460ff1681565b600c600082815260200190815260200160002060009054906101000a900460ff16611895576040517f08c379a000000000000000000000000000000000000000000000000000000000815260040161188c90614179565b60405180910390fd5b600073ffffffffffffffffffffffffffffffffffffffff166118b68261204c565b73ffffffffffffffffffffffffffffffffffffffff160361190c576040517f08c379a00000000000000000000000000000000000000000000000000000000081526004016119039061420b565b60405180910390fd5b600e60003373ffffffffffffffffffffffffffffffffffffffff1673ffffffffffffffffffffffffffffffffffffffff168152602001908152602001600020600082815260200190815260200160002060009054906101000a900460ff16156119aa576040517f08c379a00000000000000000000000000000000000000000000000000000000081526004016119a19061429d565b60405180910390fd5b662386f26fc100003410156119f4576040517f08c379a00000000000000000000000000000000000000000000000000000000081526004016119eb90613b99565b60405180910390fd5b600060086000815480929190611a0990613d39565b919050559050611a193382611f0c565b611a2b81611a2684611505565b611f2a565b600d6000838152602001908152602001600020600d60008381526020019081526020016000209081611a5d91906142e8565b506001600e60003373ffffffffffffffffffffffffffffffffffffffff1673ffffffffffffffffffffffffffffffffffffffff168152602001908152602001600020600084815260200190815260200160002060006101000a81548160ff0219169083151502179055503373ffffffffffffffffffffffffffffffffffffffff167f2e5a50405b78a268145567b93ef2a073406257472588279b0e9059a822b4b22382600d6000868152602001908152602001600020604051611b21929190614454565b60405180910390a2662386f26fc10000341115611b92573373ffffffffffffffffffffffffffffffffffffffff166108fc662386f26fc1000034611b659190614069565b9081150290604051600060405180830381858888f19350505050158015611b90573d6000803e3d6000fd5b505b5050565b611b9e611e85565b600073ffffffffffffffffffffffffffffffffffffffff168173ffffffffffffffffffffffffffffffffffffffff1603611c105760006040517f1e4fbdf7000000000000000000000000000000000000000000000000000000008152600401611c079190612f5a565b60405180910390fd5b611c1981611f86565b50565b60006001600854611c2d9190614069565b905090565b60007f80ac58cd000000000000000000000000000000000000000000000000000000007bffffffffffffffffffffffffffffffffffffffffffffffffffffffff1916827bffffffffffffffffffffffffffffffffffffffffffffffffffffffff19161480611cfd57507f5b5e139f000000000000000000000000000000000000000000000000000000007bffffffffffffffffffffffffffffffffffffffffffffffffffffffff1916827bffffffffffffffffffffffffffffffffffffffffffffffffffffffff1916145b80611d0d5750611d0c82612429565b5b9050919050565b600080611d208361204c565b9050600073ffffffffffffffffffffffffffffffffffffffff168173ffffffffffffffffffffffffffffffffffffffff1603611d9357826040517f7e273289000000000000000000000000000000000000000000000000000000008152600401611d8a9190613425565b60405180910390fd5b80915050919050565b60006004600083815260200190815260200160002060009054906101000a900473ffffffffffffffffffffffffffffffffffffffff169050919050565b600033905090565b611dee8383836001612493565b505050565b600080611dff8461204c565b9050600073ffffffffffffffffffffffffffffffffffffffff168173ffffffffffffffffffffffffffffffffffffffff1614611e70576040517f08c379a0000000000000000000000000000000000000000000000000000000008152600401611e67906144d0565b60405180910390fd5b611e7b858585612658565b9150509392505050565b611e8d611dd9565b73ffffffffffffffffffffffffffffffffffffffff16611eab61127f565b73ffffffffffffffffffffffffffffffffffffffff1614611f0a57611ece611dd9565b6040517f118cdaa7000000000000000000000000000000000000000000000000000000008152600401611f019190612f5a565b60405180910390fd5b565b611f26828260405180602001604052806000815250612872565b5050565b80600660008481526020019081526020016000209081611f4a9190613f52565b507ff8e1a15aba9398e019f0b49df1a4fde98ee17ae345cb5f6b5e2c27f5033e8ce782604051611f7a9190613425565b60405180910390a15050565b6000600760009054906101000a900473ffffffffffffffffffffffffffffffffffffffff16905081600760006101000a81548173ffffffffffffffffffffffffffffffffffffffff021916908373ffffffffffffffffffffffffffffffffffffffff1602179055508173ffffffffffffffffffffffffffffffffffffffff168173ffffffffffffffffffffffffffffffffffffffff167f8be0079c531659141344cd1fd0a4f28419497f9722a3daafe3b4186f6b6457e060405160405180910390a35050565b60006002600083815260200190815260200160002060009054906101000a900473ffffffffffffffffffffffffffffffffffffffff169050919050565b600073ffffffffffffffffffffffffffffffffffffffff168273ffffffffffffffffffffffffffffffffffffffff16036120fa57816040517f5b08ba180000000000000000000000000000000000000000000000000000000081526004016120f19190612f5a565b60405180910390fd5b80600560008573ffffffffffffffffffffffffffffffffffffffff1673ffffffffffffffffffffffffffffffffffffffff16815260200190815260200160002060008473ffffffffffffffffffffffffffffffffffffffff1673ffffffffffffffffffffffffffffffffffffffff16815260200190815260200160002060006101000a81548160ff0219169083151502179055508173ffffffffffffffffffffffffffffffffffffffff168373ffffffffffffffffffffffffffffffffffffffff167f17307eab39ab6107e8899845ad3d59bd9653f200f220920489ca2b5937696c31836040516121eb9190612de9565b60405180910390a3505050565b60008373ffffffffffffffffffffffffffffffffffffffff163b11156123a2578273ffffffffffffffffffffffffffffffffffffffff1663150b7a02868685856040518563ffffffff1660e01b81526004016122579493929190614545565b6020604051808303816000875af192505050801561229357506040513d601f19601f8201168201806040525081019061229091906145a6565b60015b612317573d80600081146122c3576040519150601f19603f3d011682016040523d82523d6000602084013e6122c8565b606091505b50600081510361230f57836040517f64a0ae920000000000000000000000000000000000000000000000000000000081526004016123069190612f5a565b60405180910390fd5b805181602001fd5b63150b7a0260e01b7bffffffffffffffffffffffffffffffffffffffffffffffffffffffff1916817bffffffffffffffffffffffffffffffffffffffffffffffffffffffff1916146123a057836040517f64a0ae920000000000000000000000000000000000000000000000000000000081526004016123979190612f5a565b60405180910390fd5b505b5050505050565b606060405180602001604052806000815250905090565b60606123cb82611d14565b5060006123d66123a9565b905060008151116123f65760405180602001604052806000815250612421565b8061240084612896565b604051602001612411929190614109565b6040516020818303038152906040525b915050919050565b60007f01ffc9a7000000000000000000000000000000000000000000000000000000007bffffffffffffffffffffffffffffffffffffffffffffffffffffffff1916827bffffffffffffffffffffffffffffffffffffffffffffffffffffffff1916149050919050565b80806124cc5750600073ffffffffffffffffffffffffffffffffffffffff168273ffffffffffffffffffffffffffffffffffffffff1614155b156126005760006124dc84611d14565b9050600073ffffffffffffffffffffffffffffffffffffffff168373ffffffffffffffffffffffffffffffffffffffff161415801561254757508273ffffffffffffffffffffffffffffffffffffffff168173ffffffffffffffffffffffffffffffffffffffff1614155b801561255a57506125588184611772565b155b1561259c57826040517fa9fbf51f0000000000000000000000000000000000000000000000000000000081526004016125939190612f5a565b60405180910390fd5b81156125fe57838573ffffffffffffffffffffffffffffffffffffffff168273ffffffffffffffffffffffffffffffffffffffff167f8c5be1e5ebec7d5bd14f71427d1e84f3dd0314c0f7b2291e5b200ac8c7c3b92560405160405180910390a45b505b836004600085815260200190815260200160002060006101000a81548173ffffffffffffffffffffffffffffffffffffffff021916908373ffffffffffffffffffffffffffffffffffffffff16021790555050505050565b6000806126648461204c565b9050600073ffffffffffffffffffffffffffffffffffffffff168373ffffffffffffffffffffffffffffffffffffffff16146126a6576126a5818486612964565b5b600073ffffffffffffffffffffffffffffffffffffffff168173ffffffffffffffffffffffffffffffffffffffff1614612737576126e8600085600080612493565b6001600360008373ffffffffffffffffffffffffffffffffffffffff1673ffffffffffffffffffffffffffffffffffffffff168152602001908152602001600020600082825403925050819055505b600073ffffffffffffffffffffffffffffffffffffffff168573ffffffffffffffffffffffffffffffffffffffff16146127ba576001600360008773ffffffffffffffffffffffffffffffffffffffff1673ffffffffffffffffffffffffffffffffffffffff168152602001908152602001600020600082825401925050819055505b846002600086815260200190815260200160002060006101000a81548173ffffffffffffffffffffffffffffffffffffffff021916908373ffffffffffffffffffffffffffffffffffffffff160217905550838573ffffffffffffffffffffffffffffffffffffffff168273ffffffffffffffffffffffffffffffffffffffff167fddf252ad1be2c89b69c2b068fc378daa952ba7f163c4a11628f55a4df523b3ef60405160405180910390a4809150509392505050565b61287c8383612a28565b612891612887611dd9565b60008585856121f8565b505050565b6060600060016128a584612b21565b01905060008167ffffffffffffffff8111156128c4576128c361303e565b5b6040519080825280601f01601f1916602001820160405280156128f65781602001600182028036833780820191505090505b509050600082602001820190505b600115612959578080600190039150507f3031323334353637383961626364656600000000000000000000000000000000600a86061a8153600a858161294d5761294c6145d3565b5b04945060008503612904575b819350505050919050565b61296f838383612c74565b612a2357600073ffffffffffffffffffffffffffffffffffffffff168373ffffffffffffffffffffffffffffffffffffffff16036129e457806040517f7e2732890000000000000000000000000000000000000000000000000000000081526004016129db9190613425565b60405180910390fd5b81816040517f177e802f000000000000000000000000000000000000000000000000000000008152600401612a1a929190614602565b60405180910390fd5b505050565b600073ffffffffffffffffffffffffffffffffffffffff168273ffffffffffffffffffffffffffffffffffffffff1603612a9a5760006040517f64a0ae92000000000000000000000000000000000000000000000000000000008152600401612a919190612f5a565b60405180910390fd5b6000612aa883836000611df3565b9050600073ffffffffffffffffffffffffffffffffffffffff168173ffffffffffffffffffffffffffffffffffffffff1614612b1c5760006040517f73c6ac6e000000000000000000000000000000000000000000000000000000008152600401612b139190612f5a565b60405180910390fd5b505050565b600080600090507a184f03e93ff9f4daa797ed6e38ed64bf6a1f0100000000000000008310612b7f577a184f03e93ff9f4daa797ed6e38ed64bf6a1f0100000000000000008381612b7557612b746145d3565b5b0492506040810190505b6d04ee2d6d415b85acef81000000008310612bbc576d04ee2d6d415b85acef81000000008381612bb257612bb16145d3565b5b0492506020810190505b662386f26fc100008310612beb57662386f26fc100008381612be157612be06145d3565b5b0492506010810190505b6305f5e1008310612c14576305f5e1008381612c0a57612c096145d3565b5b0492506008810190505b6127108310612c39576127108381612c2f57612c2e6145d3565b5b0492506004810190505b60648310612c5c5760648381612c5257612c516145d3565b5b0492506002810190505b600a8310612c6b576001810190505b80915050919050565b60008073ffffffffffffffffffffffffffffffffffffffff168373ffffffffffffffffffffffffffffffffffffffff1614158015612d2c57508273ffffffffffffffffffffffffffffffffffffffff168473ffffffffffffffffffffffffffffffffffffffff161480612ced5750612cec8484611772565b5b80612d2b57508273ffffffffffffffffffffffffffffffffffffffff16612d1383611d9c565b73ffffffffffffffffffffffffffffffffffffffff16145b5b90509392505050565b6000604051905090565b600080fd5b600080fd5b60007fffffffff0000000000000000000000000000000000000000000000000000000082169050919050565b612d7e81612d49565b8114612d8957600080fd5b50565b600081359050612d9b81612d75565b92915050565b600060208284031215612db757612db6612d3f565b5b6000612dc584828501612d8c565b91505092915050565b60008115159050919050565b612de381612dce565b82525050565b6000602082019050612dfe6000830184612dda565b92915050565b600081519050919050565b600082825260208201905092915050565b60005b83811015612e3e578082015181840152602081019050612e23565b60008484015250505050565b6000601f19601f8301169050919050565b6000612e6682612e04565b612e708185612e0f565b9350612e80818560208601612e20565b612e8981612e4a565b840191505092915050565b60006020820190508181036000830152612eae8184612e5b565b905092915050565b6000819050919050565b612ec981612eb6565b8114612ed457600080fd5b50565b600081359050612ee681612ec0565b92915050565b600060208284031215612f0257612f01612d3f565b5b6000612f1084828501612ed7565b91505092915050565b600073ffffffffffffffffffffffffffffffffffffffff82169050919050565b6000612f4482612f19565b9050919050565b612f5481612f39565b82525050565b6000602082019050612f6f6000830184612f4b565b92915050565b612f7e81612f39565b8114612f8957600080fd5b50565b600081359050612f9b81612f75565b92915050565b60008060408385031215612fb857612fb7612d3f565b5b6000612fc685828601612f8c565b9250506020612fd785828601612ed7565b9150509250929050565b600080600060608486031215612ffa57612ff9612d3f565b5b600061300886828701612f8c565b935050602061301986828701612f8c565b925050604061302a86828701612ed7565b9150509250925092565b600080fd5b600080fd5b7f4e487b7100000000000000000000000000000000000000000000000000000000600052604160045260246000fd5b61307682612e4a565b810181811067ffffffffffffffff821117156130955761309461303e565b5b80604052505050565b60006130a8612d35565b90506130b4828261306d565b919050565b600067ffffffffffffffff8211156130d4576130d361303e565b5b6130dd82612e4a565b9050602081019050919050565b82818337600083830152505050565b600061310c613107846130b9565b61309e565b90508281526020810184848401111561312857613127613039565b5b6131338482856130ea565b509392505050565b600082601f8301126131505761314f613034565b5b81356131608482602086016130f9565b91505092915050565b600067ffffffffffffffff8211156131845761318361303e565b5b602082029050602081019050919050565b600080fd5b60006131ad6131a884613169565b61309e565b905080838252602082019050602084028301858111156131d0576131cf613195565b5b835b818110156131f957806131e58882612ed7565b8452602084019350506020810190506131d2565b5050509392505050565b600082601f83011261321857613217613034565b5b813561322884826020860161319a565b91505092915050565b600067ffffffffffffffff82111561324c5761324b61303e565b5b602082029050602081019050919050565b600061327061326b84613231565b61309e565b9050808382526020820190506020840283018581111561329357613292613195565b5b835b818110156132da57803567ffffffffffffffff8111156132b8576132b7613034565b5b8086016132c5898261313b565b85526020850194505050602081019050613295565b5050509392505050565b600082601f8301126132f9576132f8613034565b5b813561330984826020860161325d565b91505092915050565b6000806000806080858703121561332c5761332b612d3f565b5b600085013567ffffffffffffffff81111561334a57613349612d44565b5b6133568782880161313b565b945050602085013567ffffffffffffffff81111561337757613376612d44565b5b6133838782880161313b565b935050604085013567ffffffffffffffff8111156133a4576133a3612d44565b5b6133b087828801613203565b925050606085013567ffffffffffffffff8111156133d1576133d0612d44565b5b6133dd878288016132e4565b91505092959194509250565b6000602082840312156133ff576133fe612d3f565b5b600061340d84828501612f8c565b91505092915050565b61341f81612eb6565b82525050565b600060208201905061343a6000830184613416565b92915050565b600081519050919050565b600082825260208201905092915050565b6000819050602082019050919050565b61347581612eb6565b82525050565b600082825260208201905092915050565b600061349782612e04565b6134a1818561347b565b93506134b1818560208601612e20565b6134ba81612e4a565b840191505092915050565b60006040830160008301516134dd600086018261346c565b50602083015184820360208601526134f5828261348c565b9150508091505092915050565b600061350e83836134c5565b905092915050565b6000602082019050919050565b600061352e82613440565b613538818561344b565b93508360208202850161354a8561345c565b8060005b8581101561358657848403895281516135678582613502565b945061357283613516565b925060208a0199505060018101905061354e565b50829750879550505050505092915050565b600060208201905081810360008301526135b28184613523565b905092915050565b6135c381612dce565b81146135ce57600080fd5b50565b6000813590506135e0816135ba565b92915050565b600080604083850312156135fd576135fc612d3f565b5b600061360b85828601612f8c565b925050602061361c858286016135d1565b9150509250929050565b6000806040838503121561363d5761363c612d3f565b5b600061364b85828601612ed7565b925050602061365c85828601612ed7565b9150509250929050565b600060408201905061367b6000830185613416565b818103602083015261368d8184612e5b565b90509392505050565b6000819050919050565b60006136bb6136b66136b184612f19565b613696565b612f19565b9050919050565b60006136cd826136a0565b9050919050565b60006136df826136c2565b9050919050565b6136ef816136d4565b82525050565b600060208201905061370a60008301846136e6565b92915050565b600067ffffffffffffffff82111561372b5761372a61303e565b5b61373482612e4a565b9050602081019050919050565b600061375461374f84613710565b61309e565b9050828152602081018484840111156137705761376f613039565b5b61377b8482856130ea565b509392505050565b600082601f83011261379857613797613034565b5b81356137a8848260208601613741565b91505092915050565b600080600080608085870312156137cb576137ca612d3f565b5b60006137d987828801612f8c565b94505060206137ea87828801612f8c565b93505060406137fb87828801612ed7565b925050606085013567ffffffffffffffff81111561381c5761381b612d44565b5b61382887828801613783565b91505092959194509250565b6000806040838503121561384b5761384a612d3f565b5b600061385985828601612f8c565b925050602061386a85828601612f8c565b9150509250929050565b6000819050919050565b61388781613874565b811461389257600080fd5b50565b6000813590506138a48161387e565b92915050565b600080604083850312156138c1576138c0612d3f565b5b60006138cf85828601612f8c565b92505060206138e085828601613895565b9150509250929050565b7f4e487b7100000000000000000000000000000000000000000000000000000000600052602260045260246000fd5b6000600282049050600182168061393157607f821691505b602082108103613944576139436138ea565b5b50919050565b600060608201905061395f6000830186612f4b565b61396c6020830185613416565b6139796040830184612f4b565b949350505050565b7f416c62756d3a204e6f2066756e647320746f2077697468647261770000000000600082015250565b60006139b7601b83612e0f565b91506139c282613981565b602082019050919050565b600060208201905081810360008301526139e6816139aa565b9050919050565b600081905092915050565b50565b6000613a086000836139ed565b9150613a13826139f8565b600082019050919050565b6000613a29826139fb565b9150819050919050565b7f416c62756d3a205769746864726177616c206661696c65640000000000000000600082015250565b6000613a69601883612e0f565b9150613a7482613a33565b602082019050919050565b60006020820190508181036000830152613a9881613a5c565b9050919050565b600081519050613aae81612ec0565b92915050565b600060208284031215613aca57613ac9612d3f565b5b6000613ad884828501613a9f565b91505092915050565b7f416c62756d3a204e6f7420612076616c6964206d7573696369616e0000000000600082015250565b6000613b17601b83612e0f565b9150613b2282613ae1565b602082019050919050565b60006020820190508181036000830152613b4681613b0a565b9050919050565b7f416c62756d3a20496e73756666696369656e74206d696e74696e672066656500600082015250565b6000613b83601f83612e0f565b9150613b8e82613b4d565b602082019050919050565b60006020820190508181036000830152613bb281613b76565b9050919050565b7f416c62756d3a20536f6e6720617272617973206c656e677468206d69736d617460008201527f6368000000000000000000000000000000000000000000000000000000000000602082015250565b6000613c15602283612e0f565b9150613c2082613bb9565b604082019050919050565b60006020820190508181036000830152613c4481613c08565b9050919050565b600081905092915050565b6000613c6182612e04565b613c6b8185613c4b565b9350613c7b818560208601612e20565b80840191505092915050565b6000613c938284613c56565b915081905092915050565b7f416c62756d3a20416c62756d206e616d6520616c72656164792074616b656e00600082015250565b6000613cd4601f83612e0f565b9150613cdf82613c9e565b602082019050919050565b60006020820190508181036000830152613d0381613cc7565b9050919050565b7f4e487b7100000000000000000000000000000000000000000000000000000000600052601160045260246000fd5b6000613d4482612eb6565b91507fffffffffffffffffffffffffffffffffffffffffffffffffffffffffffffffff8203613d7657613d75613d0a565b5b600182019050919050565b7f4e487b7100000000000000000000000000000000000000000000000000000000600052603260045260246000fd5b60008190508160005260206000209050919050565b60006020601f8301049050919050565b600082821b905092915050565b600060088302613e127fffffffffffffffffffffffffffffffffffffffffffffffffffffffffffffffff82613dd5565b613e1c8683613dd5565b95508019841693508086168417925050509392505050565b6000613e4f613e4a613e4584612eb6565b613696565b612eb6565b9050919050565b6000819050919050565b613e6983613e34565b613e7d613e7582613e56565b848454613de2565b825550505050565b600090565b613e92613e85565b613e9d818484613e60565b505050565b5b81811015613ec157613eb6600082613e8a565b600181019050613ea3565b5050565b601f821115613f0657613ed781613db0565b613ee084613dc5565b81016020851015613eef578190505b613f03613efb85613dc5565b830182613ea2565b50505b505050565b600082821c905092915050565b6000613f2960001984600802613f0b565b1980831691505092915050565b6000613f428383613f18565b9150826002028217905092915050565b613f5b82612e04565b67ffffffffffffffff811115613f7457613f7361303e565b5b613f7e8254613919565b613f89828285613ec5565b600060209050601f831160018114613fbc5760008415613faa578287015190505b613fb48582613f36565b86555061401c565b601f198416613fca86613db0565b60005b82811015613ff257848901518255600182019150602085019450602081019050613fcd565b8683101561400f578489015161400b601f891682613f18565b8355505b6001600288020188555050505b505050505050565b60006060820190506140396000830186613416565b818103602083015261404b8185612e5b565b9050818103604083015261405f8184612e5b565b9050949350505050565b600061407482612eb6565b915061407f83612eb6565b925082820390508181111561409757614096613d0a565b5b92915050565b7f416c62756d3a20546f6b656e20646f6573206e6f742065786973740000000000600082015250565b60006140d3601b83612e0f565b91506140de8261409d565b602082019050919050565b60006020820190508181036000830152614102816140c6565b9050919050565b60006141158285613c56565b91506141218284613c56565b91508190509392505050565b7f416c62756d3a20416c62756d206e6f74207075626c6973686564000000000000600082015250565b6000614163601a83612e0f565b915061416e8261412d565b602082019050919050565b6000602082019050818103600083015261419281614156565b9050919050565b7f416c62756d3a204f726967696e616c20616c62756d20646f6573206e6f74206560008201527f7869737400000000000000000000000000000000000000000000000000000000602082015250565b60006141f5602483612e0f565b915061420082614199565b604082019050919050565b60006020820190508181036000830152614224816141e8565b9050919050565b7f416c62756d3a20596f7520616c7265616479206f776e207468697320616c627560008201527f6d00000000000000000000000000000000000000000000000000000000000000602082015250565b6000614287602183612e0f565b91506142928261422b565b604082019050919050565b600060208201905081810360008301526142b68161427a565b9050919050565b6000815490506142cc81613919565b9050919050565b60008190508160005260206000209050919050565b8181036142f65750506143ce565b6142ff826142bd565b67ffffffffffffffff8111156143185761431761303e565b5b6143228254613919565b61432d828285613ec5565b6000601f83116001811461435c576000841561434a578287015490505b6143548582613f36565b8655506143c7565b601f19841661436a876142d3565b965061437586613db0565b60005b8281101561439d57848901548255600182019150600185019450602081019050614378565b868310156143ba57848901546143b6601f891682613f18565b8355505b6001600288020188555050505b5050505050505b565b600081546143dd81613919565b6143e78186612e0f565b9450600182166000811461440257600181146144185761444b565b60ff19831686528115156020028601935061444b565b61442185613db0565b60005b8381101561444357815481890152600182019150602081019050614424565b808801955050505b50505092915050565b60006040820190506144696000830185613416565b818103602083015261447b81846143d0565b90509392505050565b7f416c62756d3a20546f6b656e20697320736f756c626f756e6400000000000000600082015250565b60006144ba601983612e0f565b91506144c582614484565b602082019050919050565b600060208201905081810360008301526144e9816144ad565b9050919050565b600081519050919050565b600082825260208201905092915050565b6000614517826144f0565b61452181856144fb565b9350614531818560208601612e20565b61453a81612e4a565b840191505092915050565b600060808201905061455a6000830187612f4b565b6145676020830186612f4b565b6145746040830185613416565b8181036060830152614586818461450c565b905095945050505050565b6000815190506145a081612d75565b92915050565b6000602082840312156145bc576145bb612d3f565b5b60006145ca84828501614591565b91505092915050565b7f4e487b7100000000000000000000000000000000000000000000000000000000600052601260045260246000fd5b60006040820190506146176000830185612f4b565b6146246020830184613416565b939250505056fea2646970667358221220668938ed703ef2824613e4e1e450f95248cb556dfb4430a4bccf0e6f4cf7fd6d64736f6c63430008140033",
  "linkReferences": {},
  "deployedLinkReferences": {}
}